:020000040000FA
:0400000042EF7FF05C
:10FE3E00690E23EC7FF01200176E9EA8FED717C036
:10FE4E00ADFF120092800F013881800EC16E3E0E02
:10FE5E00C06EC09E1200030EC26EE40E00D000D023
:10FE6E00E82EFCD700D000D0C282C2B2FED7C4CFDB
:10FE7E0013F0146A120000EE60F0400EEE6AE8060F
:10FE8E00FDE100EE01F0160EEE6AE806FDE1000E51
:10FE9E00F86E000153EF7FF0BFEC7FF029EC7FF09E
:10FEAE00000E206E000E1F6E32EC7FF01FEC7FF006
:10FEBE001F4A202A20BEF8D7205004E10A0E1F5CEC
:10FECE00D8A0F2D7090E1E6E1E0E1D6EE40EE82E81
:10FEDE00FED71D2EFCD71E2EFAD700D08CB203D023
:10FEEE001D6A1D2A01D01D6A1D468C501D18FD0B62
:10FEFE001D188C6ED5D71568166809D0670E05D0FB
:10FF0E00CF0E03D0440E01D0220EAF6E25D017C0F7
:10FF1E0019F018C01AF01A50250AD8B40AD06E0A71
:10FF2E00D8B40CD0890AD8B40ED0230AD8B410D0C5
:10FF3E0013D01950800AD8B4E1D70ED01950000A48
:10FF4E00D8B4DED709D01950000AD8B4DDD704D002
:10FF5E001950000AD8B4D6D7AC9CAC8AAC98AC84F5
:10FF6E00AB8EAB9CAB88AB969D8AF28CF28E120058
:10FF7E00D388D38AD38C9B8CF29E000E0F01386FE0
:10FF8E00000E396F000E3A6F000E3B6F000E3C6F85
:10FF9E00000E926E000E936E000E946E000E956E15
:10FFAE00000E966E000E806E000E816E000E826E3A
:10FFBE00000E836E000E846E000E896E000E8A6E29
:10FFCE00000E8B6E000E8C6E000E8D6E090E1C6E6A
:10FFDE001E0E1B6EE40EE82EFED71B2EFCD71C2E1B
:10FFEE00FAD700D0C20E186E000E176E82EC7FF09C
:02FFFE001200EF
:020000040020DA
:08000000FFFFFFFFFFFFFFFF00
:020000040030CA
:0E000000FF28193CFFBD84FF0FC00FE00F402A
:00000001FF
