:020000040000FA
:0400000096EF0DF07A
:05100000002575000051
:101006000001AFAFB093AFBF05D0AF5108E1AE0559
:10101600D8B005D0000E2F6E010E2E6E04D0AEC0D5
:101026002EF0AFC02FF0ACC030F0ADC031F01EC016
:1010360032F01FC033F020C034F021C035F022C09A
:1010460036F023C037F024C038F025C039F0000E42
:101056003B6E1F0E3A6E000ED56F76D03A06D8A0BC
:101066003B06B60E3A24D96E000E3B20DA6E32C02D
:1010760001F033C002F034C003F035C004F036C0CE
:1010860005F037C006F038C007F039C008F00A0E80
:10109600096E000E0A6E000E0B6E000E0C6E000E30
:1010A6000D6E000E0E6E000E0F6E000E106E5BECD7
:1010B6000AF001C026F002C027F003C028F004C0E1
:1010C60029F005C02AF006C02BF007C02CF008C096
:1010D6002DF02650300FDF6E2E06D8A02F063006D4
:1010E600D8A0310632C001F033C002F034C003F09C
:1010F60035C004F036C005F037C006F038C007F03A
:1011060039C008F00A0E096E000E0A6E000E0B6E4C
:10111600000E0C6E000E0D6E000E0E6E000E0F6EA3
:10112600000E106E90EC09F001C032F002C033F0F0
:1011360003C034F004C035F005C036F006C037F001
:1011460007C038F008C039F03A503B10D8B41BD06D
:10115600325033103410351036103710381039101D
:10116600D8A47CD72FBE05D02F5002E12E04D8B0CC
:1011760075D731BE08D0315003E13004D8A003D072
:101186000001B0B36BD71CC011F01DC012F0B60E33
:101196003A24136E000E3B20146E30C015F031C099
:1011A60016F002EC0BF011C01CF012C01DF012007C
:1011B6003EC0D9FF3FC0DAFFDECFF6FFDDCFF7FF37
:1011C6000800F550250AD8A48ED03EC0D9FF3FC0EE
:1011D600DAFFDE2A000EDD22000E0001AD6F000EE2
:1011E600AC6FACC0B0F0ADC0B1F0AE69AF693EC097
:1011F600D9FF3FC0DAFFDECFF6FFDDCFF7FF0800ED
:10120600F550750AD8A440D03EC0D9FF3FC0DAFFDA
:10121600DE2A000EDD2240C0D9FF41C0DAFFDFCF53
:1012260042F0020EDE26DFCF43F0000EDD2242C082
:10123600D9FF43C0DAFFDECF44F0DDCF45F044C02E
:1012460046F045C047F0486A496A4A6A4B6A4C6AA2
:101256004D6A3CC01CF03DC01DF046C01EF047C0A4
:101266001FF048C020F049C021F04AC022F04BC010
:1012760023F04CC024F04DC025F003EC08F01CC050
:101286003CF01DC03DF012003EC0D9FF3FC0DAFF62
:10129600DECFF6FFDDCFF7FF0800F550250AD8A40C
:1012A60016D03EC0D9FF3FC0DAFFDE2A000EDD228F
:1012B600000E026E250E016E3CC003F03DC004F028
:1012C600B2EC0AF0000E3D6E010E3C6E12003EC0FE
:1012D600D9FF3FC0DAFFDE2A000EDD22000E3D6E8A
:1012E600000E3C6E12003EC0D9FF3FC0DAFFDECFD3
:1012F600F6FFDDCFF7FF0800F550016E026A3CC02D
:1013060003F03DC004F0B2EC0AF03EC0D9FF3FC086
:10131600DAFFDE2A000EDD22D5D720EE11F0070E09
:10132600DE6AE806FDE209500A100B100C100D10DB
:101336000E100F101010D8B446D0010E196E0AD038
:10134600D89009360A360B360C360D360E360F3661
:101356001036192A10AEF4D7D89011361236133635
:10136600143615361636173618360950015C0A50EB
:1013760002580B5003580C5004580D5005580E5087
:1013860006580F50075810500858D8A011D00950C9
:10139600015E0A50025A0B50035A0C50045A0D5063
:1013A600055A0E50065A0F50075A1050085A118007
:1013B600D89010320F320E320D320C320B320A3206
:1013C6000932192EC9D711C001F012C002F013C09C
:1013D60003F014C004F015C005F016C006F017C0DF
:1013E60007F018C008F01200D388D38AD38C9B8CE0
:1013F600F29E000E0F01386F000E396F000E3A6F25
:10140600000E3B6F000E3C6F000E926E000E936E48
:10141600000E946E000E956E000E966E000E806E97
:10142600000E816E000E826E000E836E000E846EBC
:10143600000E896E000E8A6E000E8B6E000E8C6E8C
:10144600000E8D6E94869488A00E0E6E860E0F6E1C
:10145600010E106E000E116E41EC0CF0090E176EA7
:101466001E0E166EE40EE82EFED7162EFCD7172E8D
:10147600FAD700D04B0E026E000E016E90EC0BF008
:10148600CEEC0BF0AAEC0DF0B1EC0DF0010E0B6EEC
:10149600010EEEEC0CF0090E176E1E0E166EE40E23
:1014A600E82EFED7162EFCD7172EFAD700D012003C
:1014B60009500A100B100C100D100E100F10101002
:1014C600D8B43CD0010E116E0AD0D89009360A362F
:1014D6000B360C360D360E360F361036112A10AE78
:1014E600F4D70950015C0A5002580B5003580C50AF
:1014F60004580D5005580E5006580F5007581050F6
:101506000858D8A010D00950015E0A50025A0B5054
:10151600035A0C50045A0D50055A0E50065A0F50D5
:10152600075A1050085AD89010320F320E320D3228
:101536000C320B320A320932112ED3D701C001F018
:1015460002C002F003C003F004C004F005C005F0B9
:1015560006C006F007C007F008C008F012000350E6
:101566000410D8B404D003500410D8A404D00150F9
:10157600C5EC0DF0120020EE04F00350D9260450FD
:10158600DA22DE50DE10D8B416D020EE04F0035076
:10159600D9260450DA2210EE02F00350E126045058
:1015A600E222DE50E65CE650800A096EDE50800AD2
:1015B6000958D8B0120020EE02F00350D926045084
:1015C600DA22DECF05F0DDCF06F003C0D9FF04C076
:1015D600DAFFDECF07F0DDCF08F005500724D96E1D
:1015E60006500820DA6E01C0DFFF20EE02F003503D
:1015F600D9260450DA22DE2A000EDD22120000016E
:10160600B0A10AD013C00AF014C00BF011C00CF040
:1016160012C00DF03AEC0DF016BE05D015C01AF04A
:1016260016C01BF004D0000E1B6E000E1A6E000EC4
:10163600196E000E186E0CD0000E026E200E016E92
:1016460011C003F012C004F0B2EC0AF0184A192ACD
:101656001A50185C1950800A176E1B50800A1758CA
:10166600D8A0EAD70001B0B10AD013C00AF014C05E
:101676000BF011C00CF012C00DF03AEC0DF013C0D7
:1016860001F014C002F070EC0DF01A500124116E36
:101696001B500220126E1200000E096E000E0A6E1A
:1016A600000E0B6E000E0C6E05500610071008108B
:1016B600D8B42AD0010E0D6E06D0D890053606365F
:1016C600073608360D2A08AEF8D7D89009360A36F6
:1016D6000B360C360550015C06500258075003586D
:1016E60008500458D8A009D00550015E0650025A89
:1016F6000750035A0850045A0980D8900832073216
:10170600063205320D2EE1D709C001F00AC002F0FB
:101716000BC003F00CC004F012000001B469B569F7
:1017260009D0670E05D0CF0E03D02A0E01D0240EA5
:10173600AF6E25D001C003F002C004F00450250AA4
:10174600D8B40AD06E0AD8B40CD03B0AD8B40ED09E
:10175600F30AD8B410D013D00350800AD8B4E1D716
:101766000ED00350000AD8B4DED709D00350800A41
:10177600D8B4DBD704D00350400AD8B4D8D7AC9C31
:10178600AC8AAC98AC84AB8EAB9CAB88AB969D8A8E
:10179600F28CF28E1200000E85EC0DF0020E0C6E2D
:1017A600A00E0B6E920EE82EFED70B2EFCD70C2E3B
:1017B600FAD700D0030E16EC0DF0680E0B6EE40E91
:1017C600E82EFED70B2EFCD700D0030E16EC0DF03C
:1017D600E50E0B6E910EE82EFED70B2EFCD700F011
:1017E600030E16EC0DF0020E16EC0DF0020E16ECC2
:1017F6000DF0080E16EC0DF0000E16EC0DF00C0EAA
:1018060016EC0DF0000E16EC0DF0060E16EC0DF0B3
:101816001200F7EC09F0000E5F6E000E5E6E5EC001
:10182600ADFF090E5D6E1E0E5C6EE40EE82EFED751
:101836005C2EFCD75D2EFAD700D0010E0B6E010E82
:10184600EEEC0CF0D60E566E000E576E010E586E6C
:10185600100E596E5EC05AF05FC05BF0C5EC0CF01E
:10186600D60E086E000E096E56EC0DF05E4A5F2A23
:101876005FBED5D75F04D8B0CED7D1D7280EC66EF7
:10188600000EC56E000E016E900E026ED00E036E37
:10189600030E046E0EC012F00FC013F010C014F049
:1018A60011C015F0020ED8901236133614361536BE
:1018B600E82EF9D712C005F013C006F014C007F0E1
:1018C60015C008F04FEC0BF00104C86E000EC76E91
:1018D600948694881200056E05500F0B076E073824
:1018E600F00B076E0550F00B066E010E85EC0DF041
:1018F600065085EC0DF00650050985EC0DF0D50E69
:10190600E82EFED700F00650010985EC0DF00750D1
:1019160085EC0DF00750050985EC0DF0D50EE82E87
:10192600FED700F00750010985EC0DF0120050C0FB
:1019360054F051C055F0000E0001AB6F000EAA6FB7
:1019460013D04EC03CF04FC03DF0540E3E6E000E1C
:101956003F6E52C040F053C041F0DBEC08F03C5003
:101966000001AA273D50AB2354C0F6FF55C0F7FF30
:101976000800F5500009D8A4E4D7AAC04EF0ABC0C1
:101986004FF012005A0E0001E06F000EE16F56C0D4
:10199600E2F057C0E3F0000EE56F000EE46F000EB4
:1019A600E76F000EE66FE20E4E6E000E4F6E58C0E9
:1019B60050F059C051F0E00E526E000E536E9AEC84
:1019C6000CF00001E4515624D96EE5515720DA6E29
:1019D600000EDF6E12000C6E0C04D8A410D00B5053
:1019E6007F0F0F6E0F380F0B0D6E0F500F0B0E6E15
:1019F6000D5016EC0DF00E5016EC0DF01200020E06
:101A06000C18D8A412000B50BF0F0F6E0F380F0B17
:101A16000D6E0F500F0B0E6E0D5016EC0DF00E5096
:101A260016EC0DF012000A6E0A38F00B0A6E000E64
:101A360085EC0DF00A5085EC0DF0040E0AC005F099
:101A4600066A0510086E0650096E085085EC0DF002
:101A5600540E056E1C0EE82EFED7052EFCD700D0C0
:101A66000AC008F0096A085085EC0DF01200000E55
:101A7600106E000E0F6E0BD00EC001F0026A0CC085
:101A860003F00DC004F0B2EC0AF00F4A102A0F5012
:101A96000A24D96E10500B20DA6EDF500E6E0E50EF
:101AA600D8B41200E9D7000E0B6E000E0A6E0BD0EA
:101AB6000A500824D96E0B500920DA6EDF506EECFE
:101AC6000CF00A4A0B2A0A500824D96E0B5009203A
:101AD600DA6EDF50D8B41200EBD701C003F002C0B3
:101AE60004F002D0014A022A01C0D9FF02C0DAFF7F
:101AF600DF50D8A4F7D70350015C016E045002589A
:101B0600026E1200046EC1EC0DF0000E036E700E34
:101B1600026EB8EC0DF004C002F0036AB8EC0DF0EA
:101B2600BDEC0DF0120000EE60F07E0EEE6AE806E7
:101B3600FDE1000EF86E00010CEF0CF0C7B4FED705
:101B4600C5CF01F01F0E0116D8B41200F7D7000E4C
:101B560016EC0DF0010E16EC0DF01200000E16EC50
:101B66000DF00C0E16EC0DF01200A1EC0DF002C0FB
:101B7600C9FF1200A1EC0DF0C5841200A1EC0DF016
:061B8600C58012001200F0
:020000040020DA
:08000000FFFFFFFFFFFFFFFF00
:020000040030CA
:0E000000FF28193CFFBD80FF0FC00FE00F402E
:00000001FF
