:020000040000FA
:0400000011EF00F00C
:100008002282D9CF1BF0DACF1CF013EC00F01CC011
:10001800DAFF1BC0D9FF2292110012EF01F09EA057
:1000280012009E90CD9012D0000ECE6E3D0ECF6E77
:10003800040E04D0000ECE6E3C0E05D0156E17D0FF
:10004800800ECE6EB10ECF6E010EF8D7640E196E0B
:10005800000E1A6E1A50000AD8A4E6D719500A0AD8
:10006800D8B4EED7130AD8B4E5D77D0ADDD7155032
:100078001618D8A410D08CB203D0196A192A01D046
:10008800196A19468C501918FD0B19188C6EF4EC66
:1000980000F0000E166E162ACD80120009D0670EE9
:1000A80005D0CF0E03D0440E01D0220EAF6E25D05E
:1000B8001DC01FF01EC020F02050250AD8B40AD059
:1000C8006E0AD8B40CD0890AD8B40ED0230AD8B492
:1000D80010D013D01F50800AD8B4E1D70ED01F50CB
:1000E800000AD8B4DED709D01F50000AD8B4DDD72B
:1000F80004D01F50000AD8B4D6D7AC9CAC8AAC98B0
:10010800AC84AB8EAB9CAB88AB969D9A1200D3881F
:10011800D38AD38C9B8CF29E000E0F01386F000E91
:10012800396F000E3A6F000E3B6F000E3C6F000EE9
:10013800926E000E936E000E946E000E956E000E79
:10014800966E000E806E000E816E000E826E000E9E
:10015800836E000E846E000E896E000E8A6E000E8D
:100168008B6E000E8C6E000E8D6EC20E1E6E000E13
:100178001D6E52EC00F0C2EC00F01200000ECE6EC4
:100188003D0ECF6ECD92CD8ACD883F0ECD16CD9641
:10019800CD90CD80000EF26E000EF16E000EF06E66
:1001A800000E9E6E000EA16E000E9D6E000EA06EDB
:1001B800F28EF28C9D809E90D09E1200030EC26E2D
:1001C800E40E00D000D0E82EFCD700D000D0C282C8
:1001D800C2B2FED7C4CF13F0146A13C001F01200E4
:1001E800000E186E010E1824D96EDA6A000EDA2293
:1001F800DF5028EC01F0182A010E1864F3D712001A
:100208008BEC00F01FEC01F0E2EC00F0D00E216E58
:10021800CA0EE82EFED7212EFCD7F6D700EE01F045
:10022800160EEE6AE806FDE122902292000EF86EA4
:10023800000104EF01F092800F013881800EC16E39
:100248003E0EC06EC09E1200176E9EA8FED717C045
:04025800ADFF1200E4
:020000040020DA
:08000000FFFFFFFFFFFFFFFF00
:020000040030CA
:0E000000FF28193CFFBD84FF0FC00FE00F402A
:00000001FF
