:020000040000FA
:040000003CEF0AF0D7
:101000000048656C6C6F0D0A0054657374310054B0
:0510100065737400008F
:10101600D388D38AD38C9B8CF29E000E0F01386F37
:10102600000E396F000E3A6F000E3B6F000E3C6FDC
:10103600000E926E000E936E000E946E000E956E6C
:10104600000E966E000E806E000E816E000E826E91
:10105600000E836E000E846E000E896E000E8A6E80
:10106600000E8B6E000E8C6E000E8D6E948694882C
:10107600A00E0E6E860E0F6E010E106E000E116E15
:1010860031EC09F0090E176E1E0E166EE40EE82EF0
:10109600FED7162EFCD7172EFAD700D04B0E026EAF
:1010A600000E016EF4EC08F0B6EC08F067EC0AF0FE
:1010B6006EEC0AF0010E0B6E010EB6EC09F00F0E87
:1010C600086E100E096EDEEC09F0090E176E1E0E84
:1010D600166EE40EE82EFED7162EFCD7172EFAD77C
:1010E60000D01200000E096E000E0A6E000E0B6E86
:1010F600000E0C6E0550061007100810D8B42AD042
:10110600010E0D6E06D0D89005360636073608361F
:101116000D2A08AEF8D7D89009360A360B360C36A3
:101126000550015C065002580750035808500458F1
:10113600D8A009D00550015E0650025A0750035A3E
:101146000850045A0980D890083207320632053210
:101156000D2EE1D709C001F00AC002F00BC003F062
:101166000CC004F01200000E4DEC0AF0020E0C6EDC
:10117600A00E0B6E920EE82EFED70B2EFCD70C2E71
:10118600FAD700D0030E03EC0AF0680E0B6EE40EDD
:10119600E82EFED70B2EFCD700D0030E03EC0AF088
:1011A600E50E0B6E910EE82EFED70B2EFCD700F047
:1011B600030E03EC0AF0020E03EC0AF0020E03EC37
:1011C6000AF0080E03EC0AF0000E03EC0AF00C0E0F
:1011D60003EC0AF0000E03EC0AF0060E03EC0AF02C
:1011E60012002668276809D0670E05D0CF0E03D0F7
:1011F6002A0E01D0240EAF6E25D001C003F002C026
:1012060004F00450250AD8B40AD06E0AD8B40CD01B
:101216003B0AD8B40ED0F30AD8B410D013D003507A
:10122600800AD8B4E1D70ED00350000AD8B4DED76E
:1012360009D00350800AD8B4DBD704D00350400A43
:10124600D8B4D8D7AC9CAC8AAC98AC84AB8EAB9CEB
:10125600AB88AB969D8AF28CF28E1200280EC66E73
:10126600000EC56E000E016E900E026ED00E036E5D
:10127600030E046E0EC012F00FC013F010C014F06F
:1012860011C015F0020ED8901236133614361536E4
:10129600E82EF9D712C005F013C006F014C007F007
:1012A60015C008F075EC08F00104C86E000EC76E94
:1012B6009486948812000BEC08F0010E0B6E010E5A
:1012C600B6EC09F0090E086E100E096EDEEC09F098
:1012D600090E196E1E0E186EE40EE82EFED7182E95
:1012E600FCD7192EFAD700D0010E026E100E036E2F
:1012F60027EC0AF0090E196E1E0E186EE40EE82E83
:10130600FED7182EFCD7192EFAD700D0D6D7056EE1
:1013160005500F0B076E0738F00B076E0550F00BE4
:10132600066E010E4DEC0AF006504DEC0AF0065022
:1013360005094DEC0AF0D50EE82EFED700F0065052
:1013460001094DEC0AF007504DEC0AF0075005096B
:101356004DEC0AF0D50EE82EFED700F00750010935
:101366004DEC0AF012000C6E0C04D8A410D00B50F1
:101376007F0F0F6E0F380F0B0D6E0F500F0B0E6E8B
:101386000D5003EC0AF00E5003EC0AF01200020EA8
:101396000C18D8A412000B50BF0F0F6E0F380F0B8E
:1013A6000D6E0F500F0B0E6E0D5003EC0AF00E5023
:1013B60003EC0AF01200000E0D6E000E0C6E10D03B
:1013C6000C5008240A6E0D5009200B6E0AC0F6FF59
:1013D6000BC0F7FF0800F5508AEC09F00C4A0D2AFD
:1013E6000C5008240A6E0D5009200B6E0AC0F6FF39
:1013F6000BC0F7FF0800F5500009D8B41200E0D77B
:101406000A6E0A38F00B0A6E000E4DEC0AF00A500E
:101416004DEC0AF0040E0AC005F0066A0510086EC7
:101426000650096E08504DEC0AF0540E056E1C0E5F
:10143600E82EFED7052EFCD700D00AC008F0096AB0
:1014460008504DEC0AF012000AD002C0F6FF03C0A5
:10145600F7FF0800F55075EC0AF0024A032A02C0AD
:10146600F6FF03C0F7FF0800F5500009D8B41200D4
:10147600ECD700EE60F0400EEE6AE806FDE100EE05
:101486001AF00E0EEE6AE806FDE1000EF86E000197
:101496005EEF09F0046E84EC0AF0000E036E700E27
:1014A600026E7BEC0AF004C002F0036A7BEC0AF0E1
:1014B60080EC0AF01200C7B4FED7C5CF01F01F0EAC
:1014C6000116D8B41200F7D7000E03EC0AF0010E8D
:1014D60003EC0AF01200000E03EC0AF00C0E03EC0B
:1014E6000AF01200016E9EA8FED701C0ADFF1200E1
:1014F6005EEC0AF002C0C9FF12005EEC0AF0C58479
:0A15060012005EEC0AF0C58012002E
:020000040020DA
:08000000FFFFFFFFFFFFFFFF00
:020000040030CA
:0E000000FF28193CFFBD80FF0FC00FE00F402E
:00000001FF
