:020000040000FA
:0400000011EF00F00C
:100008002082D9CF19F0DACF1AF0A3EC00F01AC089
:10001800DAFF19C0D9FF20921100F4EF00F009D0DF
:10002800670E05D0CF0E03D0440E01D0220EAF6E5E
:1000380025D01BC01DF01CC01EF01E50250AD8B4C8
:100048000AD06E0AD8B40CD0890AD8B40ED0230AC4
:10005800D8B410D013D01D50800AD8B4E1D70ED030
:100068001D50000AD8B4DED709D01D50000AD8B4F4
:10007800DDD704D01D50000AD8B4D6D7AC9CAC8AC2
:10008800AC98AC84AB8EAB9CAB88AB969D9A1200B7
:10009800D388D38AD38C9B8CF29E000E0F01386FC5
:1000A800000E396F000E3A6F000E3B6F000E3C6F6A
:1000B800000E926E000E936E000E946E000E956EFA
:1000C800000E966E000E806E000E816E000E826E1F
:1000D800000E836E000E846E000E896E000E8A6E0E
:1000E800000E8B6E000E8C6E000E8D6EC20E1C6E96
:1000F800000E1B6E13EC00F083EC00F01200000EF3
:10010800CE6E3D0ECF6ECD92CD8ACD883F0ECD16E8
:10011800CD96CD90CD80000EF26E000EF16E000EE1
:10012800F06E000E9E6E000EA16E000E9D6E000E0B
:10013800A06EF28EF28C9D809E90D09E12009EA0A2
:1001480012009E90CD90000ECE6E3D0ECF6E040E26
:100158001518D8A410D08CB203D0186A182A01D068
:10016800186A18468C501818FD0B18188C6EE4EC99
:1001780000F0000E156E152ACD801200030EC26E17
:10018800E40E00D000D0E82EFCD700D000D0C28208
:10019800C2B2FED7C4CF13F0146A13C001F0120024
:1001A8004CEC00F001EC01F0C2EC00F0D00E1F6E38
:1001B800CA0EE82EFED71F2EFCD70228026EF4D7EF
:1001C800000E176E010E1724D96EDA6A000EDA22B5
:1001D800DF500AEC01F0172A090E1764F3D7120052
:1001E80000EE01F0150EEE6AE806FDE1209020927F
:1001F800000EF86E0001D4EF00F092800F013881F4
:10020800800EC16E3E0EC06EC09E1200166E9EA875
:08021800FED716C0ADFF120075
:020000040020DA
:08000000FFFFFFFFFFFFFFFF00
:020000040030CA
:0E000000FF28193CFFBD84FF0FC00FE00F402A
:00000001FF
