:020000040000FA
:040000001DEF7EF082
:10FBB600F6EC7DF0C5801200F6EC7DF0C5841200EF
:10FBC600F6EC7DF002C0C9FF1200000E2EEC7EF0AE
:10FBD6000C0E2EEC7EF01200000E2EEC7EF0010EC6
:10FBE6002EEC7EF01200C7B4FED7C5CF01F01F0E73
:10FBF6000116D8B41200F7D792800F0138819268A7
:10FC06003869010EC26E800EC16E3E0EC06EC09E79
:10FC16001200046EDBEC7DF0000E036E700E026EB9
:10FC2600E3EC7DF004C002F0036AE3EC7DF0DFEC68
:10FC36007DF0120000EE60F0400EEE6AE806FDE18F
:10FC460000EE1CF0180EEE6AE806FDE1000EF86EF6
:10FC56000001A7EF7EF00A6E0A38F00B0A6E000E5E
:10FC66000CEC7EF00A500CEC7EF0040E0AC005F097
:10FC7600066A0510086E0650096E08500CEC7EF0F8
:10FC8600540E056E1C0EE82EFED7052EFCD700D0AE
:10FC96000AC008F0096A08500CEC7EF012000C6EDF
:10FCA6000C04D8A410D00B507F0F0F6E0F380F0B1B
:10FCB6000D6E0F500F0B0E6E0D502EEC7EF00E508B
:10FCC6002EEC7EF01200020E0C18D8A412000B5077
:10FCD600BF0F0F6E0F380F0B0D6E0F500F0B0E6E02
:10FCE6000D502EEC7EF00E502EEC7EF01200280EFB
:10FCF600C66E000EC56E000E016E900E026ED00E20
:10FD0600036E030E046E0EC012F00FC013F010C087
:10FD160014F011C015F0020ED890123613361436B0
:10FD26001536E82EF9D712C005F013C006F014C038
:10FD360007F015C008F05BEC7FF00104C86E000EFA
:10FD4600C76E9486948812009CEC7FF0FFEC7DF0E1
:10FD560092800F01388192683869010EC26E800E5A
:10FD6600C16E3E0EC06EC09E000E1B6E000E1A6E59
:10FD7600030EC26EE40E00D000D0E82EFCD700D0F1
:10FD860000D0C282C2B2FED7C4CF2EF02F6A2EC0D8
:10FD9600ADFF090E196E1E0E186EE40EE82EFED784
:10FDA600182EFCD7192EFAD700D01A4A1B2A1BBECA
:10FDB600DFD71B04D8B0D8D7DBD73268336809D071
:10FDC600670E05D0CF0E03D02A0E01D0240EAF6EDB
:10FDD60025D001C003F002C004F00450250AD8B4AF
:10FDE6000AD06E0AD8B40CD03B0AD8B40ED0F30AA7
:10FDF600D8B410D013D00350800AD8B4E1D70ED0AF
:10FE06000350000AD8B4DED709D00350800AD8B40C
:10FE1600DBD704D00350400AD8B4D8D7AC9CAC8A00
:10FE2600AC98AC84AB8EAB9CAB88AB969D8AF28CBF
:10FE3600F28E1200000E0CEC7EF0020E0C6EA00E7E
:10FE46000B6E920EE82EFED70B2EFCD70C2EFAD791
:10FE560000D0030E2EEC7EF0680E0B6EE40EE82E3C
:10FE6600FED70B2EFCD700D0030E2EEC7EF0E50E4F
:10FE76000B6E910EE82EFED70B2EFCD700F0030E6C
:10FE86002EEC7EF0020E2EEC7EF0020E2EEC7EF0B4
:10FE9600080E2EEC7EF0000E2EEC7EF00C0E2EECF4
:10FEA6007EF0000E2EEC7EF0060E2EEC7EF012009A
:10FEB600000E096E000E0A6E000E0B6E000E0C6E22
:10FEC6000550061007100810D8B42AD0010E0D6E82
:10FED60006D0D89005360636073608360D2A08AEFF
:10FEE600F8D7D89009360A360B360C360550015C21
:10FEF600065002580750035808500458D8A009D095
:10FF06000550015E0650025A0750035A0850045A1B
:10FF16000980D89008320732063205320D2EE1D715
:10FF260009C001F00AC002F00BC003F00CC004F0D7
:10FF36001200D388D38AD38C9B8CF29E000E0F01BD
:10FF4600386F000E396F000E3A6F000E3B6F000ED1
:10FF56003C6F000E926E000E936E000E946E000EB5
:10FF6600956E000E966E000E806E000E816E000E6F
:10FF7600826E000E836E000E846E000E896E000E79
:10FF86008A6E000E8B6E000E8C6E000E8D6E948641
:10FF96009488A00E0E6E860E0F6E010E106E000E69
:10FFA600116E7AEC7EF0090E176E1E0E166EE40EBA
:10FFB600E82EFED7162EFCD7172EFAD700D04B0EFA
:10FFC600026E000E016EE0EC7EF01DEC7FF0EFECB1
:10FFD6007DF0E8EC7DF0010E0B6E010E52EC7EF02A
:10FFE600090E176E1E0E166EE40EE82EFED7162E9E
:0AFFF600FCD7172EFAD700D0120036
:020000040020DA
:08000000FFFFFFFFFFFFFFFF00
:020000040030CA
:0E000000FF28193CFFBD84FF0FC00FE00F402A
:00000001FF
